{
  "_format": "hh-sol-artifact-1",
  "contractName": "Lending",
  "sourceName": "contracts/Lending.sol",
  "abi": [
    {
      "anonymous": false,
      "inputs": [
        {
          "indexed": true,
          "internalType": "uint256",
          "name": "B_id",
          "type": "uint256"
        },
        {
          "indexed": true,
          "internalType": "address",
          "name": "B_address",
          "type": "address"
        },
        {
          "indexed": true,
          "internalType": "uint256",
          "name": "_amount",
          "type": "uint256"
        }
      ],
      "name": "_Borrow",
      "type": "event"
    },
    {
      "anonymous": false,
      "inputs": [
        {
          "indexed": true,
          "internalType": "uint256",
          "name": "B_id",
          "type": "uint256"
        },
        {
          "indexed": true,
          "internalType": "address",
          "name": "L_address",
          "type": "address"
        }
      ],
      "name": "_lend",
      "type": "event"
    },
    {
      "inputs": [
        {
          "internalType": "uint256",
          "name": "",
          "type": "uint256"
        }
      ],
      "name": "B_data",
      "outputs": [
        {
          "internalType": "address payable",
          "name": "B_address",
          "type": "address"
        },
        {
          "internalType": "uint256",
          "name": "amount",
          "type": "uint256"
        },
        {
          "internalType": "bool",
          "name": "hasRecieved",
          "type": "bool"
        }
      ],
      "stateMutability": "view",
      "type": "function"
    },
    {
      "inputs": [
        {
          "internalType": "address payable",
          "name": "_address",
          "type": "address"
        },
        {
          "internalType": "uint256",
          "name": "_amount",
          "type": "uint256"
        }
      ],
      "name": "borrow",
      "outputs": [],
      "stateMutability": "nonpayable",
      "type": "function"
    },
    {
      "inputs": [
        {
          "internalType": "uint256",
          "name": "B_ID",
          "type": "uint256"
        }
      ],
      "name": "lend",
      "outputs": [
        {
          "internalType": "bool",
          "name": "",
          "type": "bool"
        }
      ],
      "stateMutability": "payable",
      "type": "function"
    }
  ],
  "bytecode": "0x608060405234801561001057600080fd5b5061041e806100206000396000f3fe6080604052600436106100345760003560e01c80634b8a352914610039578063a6aa57ce1461005b578063c139f79014610083575b600080fd5b34801561004557600080fd5b50610059610054366004610397565b6100f4565b005b61006e6100693660046103cf565b6101be565b60405190151581526020015b60405180910390f35b34801561008f57600080fd5b506100cd61009e3660046103cf565b60016020819052600091825260409091208054918101546002909101546001600160a01b039092169160ff1683565b604080516001600160a01b039094168452602084019290925215159082015260600161007a565b6040518060600160405280836001600160a01b03168152602001828152602001600015158152506001600061012860005490565b815260208082019290925260409081016000908120845181546001600160a01b0319166001600160a01b0391821617825593850151600182015593909101516002909301805460ff191693151593909317909255905482918416906040517f24ddc5d8c2be5b8fab8592c492d6dc3886d3ff9ed8a2aa6b7ee8ee66dd96c8f590600090a46101ba600080546001019055565b5050565b6000818152600160205260408120546001600160a01b03163314156102345760405162461bcd60e51b815260206004820152602160248201527f4c656e64657220616e6420626f72726f7765722063616e742062652073616d656044820152601760f91b60648201526084015b60405180910390fd5b60008281526001602052604090206002015460ff16156102ad5760405162461bcd60e51b815260206004820152602e60248201527f426f72726f77277320726571756573742068617320616c72656164792062656560448201526d6e2066756c66696c6c656420212160901b606482015260840161022b565b6000828152600160208190526040909120015434146103005760405162461bcd60e51b815260206004820152600f60248201526e5061792045786163742056616c756560881b604482015260640161022b565b6000828152600160205260408082205490516001600160a01b03909116913480156108fc02929091818181858888f19350505050158015610345573d6000803e3d6000fd5b506000828152600160208190526040808320600201805460ff191690921790915551339184917f722f09a48a9ca5f689ae0cb4e360dc4da13d7c3ae7b15d8e1d40f9b225de79f09190a3506001919050565b600080604083850312156103aa57600080fd5b82356001600160a01b03811681146103c157600080fd5b946020939093013593505050565b6000602082840312156103e157600080fd5b503591905056fea2646970667358221220cc50edbcc9c5883c61df8c5eb87e7826add4c631865325a36c2448510599099164736f6c63430008090033",
  "linkReferences": {},
  "deployedLinkReferences": {}
}