{
  "_format": "hh-sol-artifact-1",
  "contractName": "ProfileSBT",
  "sourceName": "contracts/ProfileNFT.sol",
  "abi": [
    {
      "inputs": [],
      "stateMutability": "nonpayable",
      "type": "constructor"
    },
    {
      "anonymous": false,
      "inputs": [
        {
          "indexed": true,
          "internalType": "address",
          "name": "owner",
          "type": "address"
        },
        {
          "indexed": true,
          "internalType": "address",
          "name": "approved",
          "type": "address"
        },
        {
          "indexed": true,
          "internalType": "uint256",
          "name": "tokenId",
          "type": "uint256"
        }
      ],
      "name": "Approval",
      "type": "event"
    },
    {
      "anonymous": false,
      "inputs": [
        {
          "indexed": true,
          "internalType": "address",
          "name": "owner",
          "type": "address"
        },
        {
          "indexed": true,
          "internalType": "address",
          "name": "operator",
          "type": "address"
        },
        {
          "indexed": false,
          "internalType": "bool",
          "name": "approved",
          "type": "bool"
        }
      ],
      "name": "ApprovalForAll",
      "type": "event"
    },
    {
      "anonymous": false,
      "inputs": [
        {
          "indexed": true,
          "internalType": "address",
          "name": "to",
          "type": "address"
        },
        {
          "indexed": true,
          "internalType": "uint256",
          "name": "tokenId",
          "type": "uint256"
        }
      ],
      "name": "Attest",
      "type": "event"
    },
    {
      "anonymous": false,
      "inputs": [
        {
          "indexed": true,
          "internalType": "address",
          "name": "previousOwner",
          "type": "address"
        },
        {
          "indexed": true,
          "internalType": "address",
          "name": "newOwner",
          "type": "address"
        }
      ],
      "name": "OwnershipTransferred",
      "type": "event"
    },
    {
      "anonymous": false,
      "inputs": [
        {
          "indexed": true,
          "internalType": "address",
          "name": "to",
          "type": "address"
        },
        {
          "indexed": true,
          "internalType": "uint256",
          "name": "tokenId",
          "type": "uint256"
        }
      ],
      "name": "Revoke",
      "type": "event"
    },
    {
      "anonymous": false,
      "inputs": [
        {
          "indexed": true,
          "internalType": "address",
          "name": "from",
          "type": "address"
        },
        {
          "indexed": true,
          "internalType": "address",
          "name": "to",
          "type": "address"
        },
        {
          "indexed": true,
          "internalType": "uint256",
          "name": "tokenId",
          "type": "uint256"
        }
      ],
      "name": "Transfer",
      "type": "event"
    },
    {
      "inputs": [
        {
          "internalType": "address",
          "name": "to",
          "type": "address"
        },
        {
          "internalType": "uint256",
          "name": "tokenId",
          "type": "uint256"
        }
      ],
      "name": "approve",
      "outputs": [],
      "stateMutability": "nonpayable",
      "type": "function"
    },
    {
      "inputs": [
        {
          "internalType": "address",
          "name": "owner",
          "type": "address"
        }
      ],
      "name": "balanceOf",
      "outputs": [
        {
          "internalType": "uint256",
          "name": "",
          "type": "uint256"
        }
      ],
      "stateMutability": "view",
      "type": "function"
    },
    {
      "inputs": [
        {
          "internalType": "uint256",
          "name": "tokenId",
          "type": "uint256"
        }
      ],
      "name": "burn",
      "outputs": [],
      "stateMutability": "nonpayable",
      "type": "function"
    },
    {
      "inputs": [
        {
          "internalType": "uint256",
          "name": "tokenId",
          "type": "uint256"
        }
      ],
      "name": "getApproved",
      "outputs": [
        {
          "internalType": "address",
          "name": "",
          "type": "address"
        }
      ],
      "stateMutability": "view",
      "type": "function"
    },
    {
      "inputs": [
        {
          "internalType": "address",
          "name": "owner",
          "type": "address"
        },
        {
          "internalType": "address",
          "name": "operator",
          "type": "address"
        }
      ],
      "name": "isApprovedForAll",
      "outputs": [
        {
          "internalType": "bool",
          "name": "",
          "type": "bool"
        }
      ],
      "stateMutability": "view",
      "type": "function"
    },
    {
      "inputs": [],
      "name": "name",
      "outputs": [
        {
          "internalType": "string",
          "name": "",
          "type": "string"
        }
      ],
      "stateMutability": "view",
      "type": "function"
    },
    {
      "inputs": [],
      "name": "owner",
      "outputs": [
        {
          "internalType": "address",
          "name": "",
          "type": "address"
        }
      ],
      "stateMutability": "view",
      "type": "function"
    },
    {
      "inputs": [
        {
          "internalType": "uint256",
          "name": "tokenId",
          "type": "uint256"
        }
      ],
      "name": "ownerOf",
      "outputs": [
        {
          "internalType": "address",
          "name": "",
          "type": "address"
        }
      ],
      "stateMutability": "view",
      "type": "function"
    },
    {
      "inputs": [],
      "name": "renounceOwnership",
      "outputs": [],
      "stateMutability": "nonpayable",
      "type": "function"
    },
    {
      "inputs": [
        {
          "internalType": "uint256",
          "name": "tokenId",
          "type": "uint256"
        }
      ],
      "name": "revoke",
      "outputs": [],
      "stateMutability": "nonpayable",
      "type": "function"
    },
    {
      "inputs": [
        {
          "internalType": "address",
          "name": "to",
          "type": "address"
        },
        {
          "internalType": "string",
          "name": "uri",
          "type": "string"
        }
      ],
      "name": "safeMint",
      "outputs": [],
      "stateMutability": "nonpayable",
      "type": "function"
    },
    {
      "inputs": [
        {
          "internalType": "address",
          "name": "from",
          "type": "address"
        },
        {
          "internalType": "address",
          "name": "to",
          "type": "address"
        },
        {
          "internalType": "uint256",
          "name": "tokenId",
          "type": "uint256"
        }
      ],
      "name": "safeTransferFrom",
      "outputs": [],
      "stateMutability": "nonpayable",
      "type": "function"
    },
    {
      "inputs": [
        {
          "internalType": "address",
          "name": "from",
          "type": "address"
        },
        {
          "internalType": "address",
          "name": "to",
          "type": "address"
        },
        {
          "internalType": "uint256",
          "name": "tokenId",
          "type": "uint256"
        },
        {
          "internalType": "bytes",
          "name": "data",
          "type": "bytes"
        }
      ],
      "name": "safeTransferFrom",
      "outputs": [],
      "stateMutability": "nonpayable",
      "type": "function"
    },
    {
      "inputs": [
        {
          "internalType": "address",
          "name": "operator",
          "type": "address"
        },
        {
          "internalType": "bool",
          "name": "approved",
          "type": "bool"
        }
      ],
      "name": "setApprovalForAll",
      "outputs": [],
      "stateMutability": "nonpayable",
      "type": "function"
    },
    {
      "inputs": [
        {
          "internalType": "bytes4",
          "name": "interfaceId",
          "type": "bytes4"
        }
      ],
      "name": "supportsInterface",
      "outputs": [
        {
          "internalType": "bool",
          "name": "",
          "type": "bool"
        }
      ],
      "stateMutability": "view",
      "type": "function"
    },
    {
      "inputs": [],
      "name": "symbol",
      "outputs": [
        {
          "internalType": "string",
          "name": "",
          "type": "string"
        }
      ],
      "stateMutability": "view",
      "type": "function"
    },
    {
      "inputs": [
        {
          "internalType": "uint256",
          "name": "tokenId",
          "type": "uint256"
        }
      ],
      "name": "tokenURI",
      "outputs": [
        {
          "internalType": "string",
          "name": "",
          "type": "string"
        }
      ],
      "stateMutability": "view",
      "type": "function"
    },
    {
      "inputs": [
        {
          "internalType": "address",
          "name": "from",
          "type": "address"
        },
        {
          "internalType": "address",
          "name": "to",
          "type": "address"
        },
        {
          "internalType": "uint256",
          "name": "tokenId",
          "type": "uint256"
        }
      ],
      "name": "transferFrom",
      "outputs": [],
      "stateMutability": "nonpayable",
      "type": "function"
    },
    {
      "inputs": [
        {
          "internalType": "address",
          "name": "newOwner",
          "type": "address"
        }
      ],
      "name": "transferOwnership",
      "outputs": [],
      "stateMutability": "nonpayable",
      "type": "function"
    }
  ],
  "bytecode": "0x60806040523480156200001157600080fd5b50604080518082018252600a815269141c9bd99a5b1954d09560b21b6020808301918252835180850190945260048452631414d09560e21b9084015281519192916200006091600091620000ef565b50805162000076906001906020840190620000ef565b505050620000936200008d6200009960201b60201c565b6200009d565b620001d2565b3390565b600780546001600160a01b038381166001600160a01b0319831681179093556040519116919082907f8be0079c531659141344cd1fd0a4f28419497f9722a3daafe3b4186f6b6457e090600090a35050565b828054620000fd9062000195565b90600052602060002090601f0160209004810192826200012157600085556200016c565b82601f106200013c57805160ff19168380011785556200016c565b828001600101855582156200016c579182015b828111156200016c5782518255916020019190600101906200014f565b506200017a9291506200017e565b5090565b5b808211156200017a57600081556001016200017f565b600181811c90821680620001aa57607f821691505b60208210811415620001cc57634e487b7160e01b600052602260045260246000fd5b50919050565b611b1480620001e26000396000f3fe608060405234801561001057600080fd5b50600436106101215760003560e01c806370a08231116100ad578063b88d4fde11610071578063b88d4fde14610257578063c87b56dd1461026a578063d204c45e1461027d578063e985e9c514610290578063f2fde38b146102cc57600080fd5b806370a0823114610202578063715018a6146102235780638da5cb5b1461022b57806395d89b411461023c578063a22cb4651461024457600080fd5b806320c5429b116100f457806320c5429b146101a357806323b872dd146101b657806342842e0e146101c957806342966c68146101dc5780636352211e146101ef57600080fd5b806301ffc9a71461012657806306fdde031461014e578063081812fc14610163578063095ea7b31461018e575b600080fd5b6101396101343660046115da565b6102df565b60405190151581526020015b60405180910390f35b610156610331565b604051610145919061164f565b610176610171366004611662565b6103c3565b6040516001600160a01b039091168152602001610145565b6101a161019c366004611697565b6103ea565b005b6101a16101b1366004611662565b610505565b6101a16101c43660046116c1565b610519565b6101a16101d73660046116c1565b61054a565b6101a16101ea366004611662565b610565565b6101766101fd366004611662565b6105d1565b6102156102103660046116fd565b610631565b604051908152602001610145565b6101a16106b7565b6007546001600160a01b0316610176565b6101566106cb565b6101a1610252366004611718565b6106da565b6101a16102653660046117e0565b6106e9565b610156610278366004611662565b610721565b6101a161028b36600461185c565b61072c565b61013961029e3660046118be565b6001600160a01b03918216600090815260056020908152604080832093909416825291909152205460ff1690565b6101a16102da3660046116fd565b6107ea565b60006001600160e01b031982166380ac58cd60e01b148061031057506001600160e01b03198216635b5e139f60e01b145b8061032b57506301ffc9a760e01b6001600160e01b03198316145b92915050565b606060008054610340906118f1565b80601f016020809104026020016040519081016040528092919081815260200182805461036c906118f1565b80156103b95780601f1061038e576101008083540402835291602001916103b9565b820191906000526020600020905b81548152906001019060200180831161039c57829003601f168201915b5050505050905090565b60006103ce82610860565b506000908152600460205260409020546001600160a01b031690565b60006103f5826105d1565b9050806001600160a01b0316836001600160a01b031614156104685760405162461bcd60e51b815260206004820152602160248201527f4552433732313a20617070726f76616c20746f2063757272656e74206f776e656044820152603960f91b60648201526084015b60405180910390fd5b336001600160a01b03821614806104845750610484813361029e565b6104f65760405162461bcd60e51b815260206004820152603d60248201527f4552433732313a20617070726f76652063616c6c6572206973206e6f7420746f60448201527f6b656e206f776e6572206f7220617070726f76656420666f7220616c6c000000606482015260840161045f565b61050083836108bf565b505050565b61050d61092d565b61051681610987565b50565b61052333826109c7565b61053f5760405162461bcd60e51b815260040161045f9061192c565b610500838383610a46565b610500838383604051806020016040528060008152506106e9565b3361056f826105d1565b6001600160a01b03161461050d5760405162461bcd60e51b815260206004820152602360248201527f4f6e6c79206f776e6572206f662074686520746f6b656e2063616e206275726e604482015262081a5d60ea1b606482015260840161045f565b6000818152600260205260408120546001600160a01b03168061032b5760405162461bcd60e51b8152602060048201526018602482015277115490cdcc8c4e881a5b9d985b1a59081d1bdad95b88125160421b604482015260640161045f565b60006001600160a01b03821661069b5760405162461bcd60e51b815260206004820152602960248201527f4552433732313a2061646472657373207a65726f206973206e6f7420612076616044820152683634b21037bbb732b960b91b606482015260840161045f565b506001600160a01b031660009081526003602052604090205490565b6106bf61092d565b6106c96000610bb7565b565b606060018054610340906118f1565b6106e5338383610c09565b5050565b6106f333836109c7565b61070f5760405162461bcd60e51b815260040161045f9061192c565b61071b84848484610cd8565b50505050565b606061032b82610d0b565b6001600160a01b03821660009081526009602052604090205460ff16156107955760405162461bcd60e51b815260206004820152601f60248201527f416464726573732063616e206f6e6c79206d696e74206f6e6520746f6b656e00604482015260640161045f565b60006107a060085490565b90506107b0600880546001019055565b6107ba8382610e14565b6107c48183610e2e565b50506001600160a01b03166000908152600960205260409020805460ff19166001179055565b6107f261092d565b6001600160a01b0381166108575760405162461bcd60e51b815260206004820152602660248201527f4f776e61626c653a206e6577206f776e657220697320746865207a65726f206160448201526564647265737360d01b606482015260840161045f565b61051681610bb7565b6000818152600260205260409020546001600160a01b03166105165760405162461bcd60e51b8152602060048201526018602482015277115490cdcc8c4e881a5b9d985b1a59081d1bdad95b88125160421b604482015260640161045f565b600081815260046020526040902080546001600160a01b0319166001600160a01b03841690811790915581906108f4826105d1565b6001600160a01b03167f8c5be1e5ebec7d5bd14f71427d1e84f3dd0314c0f7b2291e5b200ac8c7c3b92560405160405180910390a45050565b6007546001600160a01b031633146106c95760405162461bcd60e51b815260206004820181905260248201527f4f776e61626c653a2063616c6c6572206973206e6f7420746865206f776e6572604482015260640161045f565b600060096000610996846105d1565b6001600160a01b031681526020810191909152604001600020805460ff191691151591909117905561051681610ec8565b6000806109d3836105d1565b9050806001600160a01b0316846001600160a01b03161480610a1a57506001600160a01b0380821660009081526005602090815260408083209388168352929052205460ff165b80610a3e5750836001600160a01b0316610a33846103c3565b6001600160a01b0316145b949350505050565b826001600160a01b0316610a59826105d1565b6001600160a01b031614610a7f5760405162461bcd60e51b815260040161045f90611979565b6001600160a01b038216610ae15760405162461bcd60e51b8152602060048201526024808201527f4552433732313a207472616e7366657220746f20746865207a65726f206164646044820152637265737360e01b606482015260840161045f565b610aee8383836001610f08565b826001600160a01b0316610b01826105d1565b6001600160a01b031614610b275760405162461bcd60e51b815260040161045f90611979565b600081815260046020908152604080832080546001600160a01b03199081169091556001600160a01b0387811680865260038552838620805460001901905590871680865283862080546001019055868652600290945282852080549092168417909155905184937fddf252ad1be2c89b69c2b068fc378daa952ba7f163c4a11628f55a4df523b3ef91a4505050565b600780546001600160a01b038381166001600160a01b0319831681179093556040519116919082907f8be0079c531659141344cd1fd0a4f28419497f9722a3daafe3b4186f6b6457e090600090a35050565b816001600160a01b0316836001600160a01b03161415610c6b5760405162461bcd60e51b815260206004820152601960248201527f4552433732313a20617070726f766520746f2063616c6c657200000000000000604482015260640161045f565b6001600160a01b03838116600081815260056020908152604080832094871680845294825291829020805460ff191686151590811790915591519182527f17307eab39ab6107e8899845ad3d59bd9653f200f220920489ca2b5937696c31910160405180910390a3505050565b610ce3848484610a46565b610cef84848484610f90565b61071b5760405162461bcd60e51b815260040161045f906119be565b6060610d1682610860565b60008281526006602052604081208054610d2f906118f1565b80601f0160208091040260200160405190810160405280929190818152602001828054610d5b906118f1565b8015610da85780601f10610d7d57610100808354040283529160200191610da8565b820191906000526020600020905b815481529060010190602001808311610d8b57829003601f168201915b505050505090506000610dc660408051602081019091526000815290565b9050805160001415610dd9575092915050565b815115610e0b578082604051602001610df3929190611a10565b60405160208183030381529060405292505050919050565b610a3e8461109d565b6106e5828260405180602001604052806000815250611111565b6000828152600260205260409020546001600160a01b0316610ea95760405162461bcd60e51b815260206004820152602e60248201527f45524337323155524953746f726167653a2055524920736574206f66206e6f6e60448201526d32bc34b9ba32b73a103a37b5b2b760911b606482015260840161045f565b60008281526006602090815260409091208251610500928401906114f5565b610ed181611144565b60008181526006602052604090208054610eea906118f1565b15905061051657600081815260066020526040812061051691611579565b600181111561071b576001600160a01b03841615610f4e576001600160a01b03841660009081526003602052604081208054839290610f48908490611a55565b90915550505b6001600160a01b0383161561071b576001600160a01b03831660009081526003602052604081208054839290610f85908490611a6c565b909155505050505050565b60006001600160a01b0384163b1561109257604051630a85bd0160e11b81526001600160a01b0385169063150b7a0290610fd4903390899088908890600401611a84565b602060405180830381600087803b158015610fee57600080fd5b505af192505050801561101e575060408051601f3d908101601f1916820190925261101b91810190611ac1565b60015b611078573d80801561104c576040519150601f19603f3d011682016040523d82523d6000602084013e611051565b606091505b5080516110705760405162461bcd60e51b815260040161045f906119be565b805181602001fd5b6001600160e01b031916630a85bd0160e11b149050610a3e565b506001949350505050565b60606110a882610860565b60006110bf60408051602081019091526000815290565b905060008151116110df576040518060200160405280600081525061110a565b806110e9846111e7565b6040516020016110fa929190611a10565b6040516020818303038152906040525b9392505050565b61111b8383611284565b6111286000848484610f90565b6105005760405162461bcd60e51b815260040161045f906119be565b600061114f826105d1565b905061115f816000846001610f08565b611168826105d1565b600083815260046020908152604080832080546001600160a01b03199081169091556001600160a01b0385168085526003845282852080546000190190558785526002909352818420805490911690555192935084927fddf252ad1be2c89b69c2b068fc378daa952ba7f163c4a11628f55a4df523b3ef908390a45050565b606060006111f48361141d565b600101905060008167ffffffffffffffff81111561121457611214611754565b6040519080825280601f01601f19166020018201604052801561123e576020820181803683370190505b5090508181016020015b600019016f181899199a1a9b1b9c1cb0b131b232b360811b600a86061a8153600a85049450846112775761127c565b611248565b509392505050565b6001600160a01b0382166112da5760405162461bcd60e51b815260206004820181905260248201527f4552433732313a206d696e7420746f20746865207a65726f2061646472657373604482015260640161045f565b6000818152600260205260409020546001600160a01b03161561133f5760405162461bcd60e51b815260206004820152601c60248201527f4552433732313a20746f6b656e20616c7265616479206d696e74656400000000604482015260640161045f565b61134d600083836001610f08565b6000818152600260205260409020546001600160a01b0316156113b25760405162461bcd60e51b815260206004820152601c60248201527f4552433732313a20746f6b656e20616c7265616479206d696e74656400000000604482015260640161045f565b6001600160a01b038216600081815260036020908152604080832080546001019055848352600290915280822080546001600160a01b0319168417905551839291907fddf252ad1be2c89b69c2b068fc378daa952ba7f163c4a11628f55a4df523b3ef908290a45050565b60008072184f03e93ff9f4daa797ed6e38ed64bf6a1f0160401b831061145c5772184f03e93ff9f4daa797ed6e38ed64bf6a1f0160401b830492506040015b6d04ee2d6d415b85acef81000000008310611488576d04ee2d6d415b85acef8100000000830492506020015b662386f26fc1000083106114a657662386f26fc10000830492506010015b6305f5e10083106114be576305f5e100830492506008015b61271083106114d257612710830492506004015b606483106114e4576064830492506002015b600a831061032b5760010192915050565b828054611501906118f1565b90600052602060002090601f0160209004810192826115235760008555611569565b82601f1061153c57805160ff1916838001178555611569565b82800160010185558215611569579182015b8281111561156957825182559160200191906001019061154e565b506115759291506115af565b5090565b508054611585906118f1565b6000825580601f10611595575050565b601f01602090049060005260206000209081019061051691905b5b8082111561157557600081556001016115b0565b6001600160e01b03198116811461051657600080fd5b6000602082840312156115ec57600080fd5b813561110a816115c4565b60005b838110156116125781810151838201526020016115fa565b8381111561071b5750506000910152565b6000815180845261163b8160208601602086016115f7565b601f01601f19169290920160200192915050565b60208152600061110a6020830184611623565b60006020828403121561167457600080fd5b5035919050565b80356001600160a01b038116811461169257600080fd5b919050565b600080604083850312156116aa57600080fd5b6116b38361167b565b946020939093013593505050565b6000806000606084860312156116d657600080fd5b6116df8461167b565b92506116ed6020850161167b565b9150604084013590509250925092565b60006020828403121561170f57600080fd5b61110a8261167b565b6000806040838503121561172b57600080fd5b6117348361167b565b91506020830135801515811461174957600080fd5b809150509250929050565b634e487b7160e01b600052604160045260246000fd5b600067ffffffffffffffff8084111561178557611785611754565b604051601f8501601f19908116603f011681019082821181831017156117ad576117ad611754565b816040528093508581528686860111156117c657600080fd5b858560208301376000602087830101525050509392505050565b600080600080608085870312156117f657600080fd5b6117ff8561167b565b935061180d6020860161167b565b925060408501359150606085013567ffffffffffffffff81111561183057600080fd5b8501601f8101871361184157600080fd5b6118508782356020840161176a565b91505092959194509250565b6000806040838503121561186f57600080fd5b6118788361167b565b9150602083013567ffffffffffffffff81111561189457600080fd5b8301601f810185136118a557600080fd5b6118b48582356020840161176a565b9150509250929050565b600080604083850312156118d157600080fd5b6118da8361167b565b91506118e86020840161167b565b90509250929050565b600181811c9082168061190557607f821691505b6020821081141561192657634e487b7160e01b600052602260045260246000fd5b50919050565b6020808252602d908201527f4552433732313a2063616c6c6572206973206e6f7420746f6b656e206f776e6560408201526c1c881bdc88185c1c1c9bdd9959609a1b606082015260800190565b60208082526025908201527f4552433732313a207472616e736665722066726f6d20696e636f72726563742060408201526437bbb732b960d91b606082015260800190565b60208082526032908201527f4552433732313a207472616e7366657220746f206e6f6e20455243373231526560408201527131b2b4bb32b91034b6b83632b6b2b73a32b960711b606082015260800190565b60008351611a228184602088016115f7565b835190830190611a368183602088016115f7565b01949350505050565b634e487b7160e01b600052601160045260246000fd5b600082821015611a6757611a67611a3f565b500390565b60008219821115611a7f57611a7f611a3f565b500190565b6001600160a01b0385811682528416602082015260408101839052608060608201819052600090611ab790830184611623565b9695505050505050565b600060208284031215611ad357600080fd5b815161110a816115c456fea2646970667358221220c86d6c53844e0e61d535fc57593e2097eee67785ec287969c18de222b699a41d64736f6c63430008090033",
  "linkReferences": {},
  "deployedLinkReferences": {}
}